:020000040000FA
:1000000012EF00F00B920BA211EF00F00B920CEF2D
:1000100000F0226E0338236E2338036E223A223812
:1000200010000000038AE70E856FF80E866F920EAF
:10003000816F000E0B6E039A059806B222EF00F056
:1000400048EF00F0059683EC00F07CEC00F083ECC8
:1000500000F07CEC00F083EC00F09FEC00F075EC1D
:1000600000F06EEC00F098EC00F06EEC00F083EC29
:1000700000F098EC00F09FEC00F083EC00F091ECC5
:1000800000F09FEC00F06EEC00F005861DEF00F034
:1000900006946EEC00F075EC00F083EC00F08AEC56
:1000A00000F08AEC00F098EC00F08AEC00F083ECB1
:1000B00000F06EEC00F075EC00F083EC00F083ECE7
:1000C00000F075EC00F06EEC00F075EC00F06EECFA
:1000D00000F075EC00F006841DEF00F00588A6EC3A
:1000E00000F00598A6EC00F012000588AAEC00F0DC
:1000F0000598AAEC00F012000588AEEC00F0059817
:10010000AEEC00F012000588B2EC00F00598B2ECFD
:1001100000F012000588B6EC00F00598B6EC00F08F
:1001200012000588BAEC00F00598BAEC00F0120055
:100130000588BEEC00F00598BEEC00F012000588C2
:10014000C2EC00F00598C2EC00F01200EE0E206E3A
:10015000C6EF00F0D50E206EC6EF00F0C90E206E7F
:10016000C6EF00F0BE0E206EC6EF00F09F0E206EB0
:10017000C6EF00F0960E206EC6EF00F08E0E206ED9
:10018000C6EF00F07E0E206EC6EF00F0000000000B
:0E019000000000000000202EC6EF00F012005C
:00000001FF
