:020000040000FA
:10000000036A03EF00F0038A800E856F010E866F8E
:10001000039A0584059C06B219EF00F00594058C3F
:100020007DEC00F0059C7DEC00F006A20FEF00F0E7
:10003000058406B427EF00F00594058C81EC00F0F0
:10004000059C81EC00F006A41DEF00F0059406B6B7
:1000500035EF00F00594058C85EC00F0059C85ECEF
:1000600000F006A62BEF00F0059406B843EF00F071
:100070000594058C89EC00F0059C89EC00F006A83D
:1000800039EF00F0058406BA51EF00F00594058CB5
:100090008DEC00F0059C8DEC00F006AA47EF00F017
:1000A000058406BC5FEF00F00594058C91EC00F030
:1000B000059C91EC00F006AC55EF00F0058406BEFF
:1000C0006DEF00F00594058C95EC00F0059C95EC27
:1000D00000F006AE63EF00F0058405B20BEF00F010
:1000E0000594058C99EC00F0059C99EC00F005A2B4
:1000F00071EF00F005840BEF00F0EE0E206E9DEF27
:1001000000F0D50E206E9DEF00F0C90E206E9DEF21
:1001100000F0BE0E206E9DEF00F09F0E206E9DEF52
:1001200000F0960E206E9DEF00F08E0E206E9DEF7B
:1001300000F07E0E206E9DEF00F000000000000039
:0C01400000000000202E9DEF00F01200D7
:00000001FF
