:020000040000FA
:1000000002EF00F0038AFE0E856FC70E866F039A1B
:10001000058006960698069A36EC00F005A215EFC4
:1000200000F006862FEC00F0069605A40EEF00F017
:1000300006B225EF00F00688059006A408EF00F050
:1000400005B408EF00F01DEF00F0068A059006A247
:1000500008EF00F005B408EF00F027EF00F0060EFF
:10006000226E36EC00F0222E31EF00F0C80E216E29
:10007000C80E206E0000000000000000202E3AEFA5
:0A00800000F0212E38EF00F012000E
:00000001FF
