:020000040000FA
:100000001CEF00F0266E0338276E0BA20FEF00F0F6
:10001000258025821E0E946F0B9217EF00F00B9433
:1000200025A22CEF00F0640E016E17EF00F02738C8
:10003000036E263A26381000038AF80E856F9B0E51
:10004000866FC10E816FB00E0B6E039A069C0694EC
:10005000059005922590259225B26EEF00F025A01F
:100060002CEF00F02580140E286E068C069A058071
:1000700005B442EF00F058EC00F0282E38EF00F005
:1000800042EF00F0068C069A05804AEC00F00590DD
:1000900026EF00F0320E236E5FEC00F0232E4CEFC3
:1000A00000F0280E226E5FEC00F0222E53EF00F0DD
:1000B000030E246E5FEC00F0242E5AEF00F0C80E01
:1000C000216ED70E206E0000000000000000202EE0
:1000D00063EF00F0212E61EF00F012006EEF00F0F0
:00000001FF
